:020000040800F2
:1000000000800120890E0008110E0008170E00085C
:100010001D0E0008230E0008290E00080000000035
:100020000000000000000000000000002F0E00088B
:100030003D0E0008000000004B0E0008590E00089D
:10004000D90E0008D90E0008D90E0008D90E0008F4
:10005000D90E0008D90E0008D90E0008D90E0008E4
:10006000D90E0008D90E0008D90E0008D90E0008D4
:10007000D90E0008D90E0008D90E0008D90E0008C4
:10008000D90E0008D90E0008D90E000800000000A3
:10009000000000000000000000000000D90E000871
:1000A000D90E0008D90E0008D90E0008D90E000894
:1000B000D90E0008D90E0008D90E0008D90E000884
:1000C000D90E0008D90E0008D90E0008D90E000874
:1000D000D90E0008D90E0008D90E00080000000053
:1000E000D90E0008D90E0008D90E00080000000043
:1000F000000000000000000000000000D90E000811
:1001000000000000D90E0008D90E0008D90E000822
:1001100000000000000000000000000000000000DF
:10012000D90E0008D90E0008D90E0008D90E000813
:10013000D90E0008000000000000000000000000D0
:10014000000000000000000000000000D90E0008C0
:10015000D90E0008D90E0008D90E0008D90E0008E3
:10016000D90E0008D90E00080000000000000000B1
:10017000000000000000000000000000000000007F
:1001800000000000D90E0008000000000000000080
:04019000D90E00087C
:1001940010B5054C237833B9044B13B10448AFF3BD
:1001A40000800123237010BD0C000020000000001B
:1001B400B033000808B5034B1BB103490348AFF340
:1001C400008008BD0000000010000020B0330008CB
:1001D40053B94AB9002908BF00281CBF4FF0FF31AA
:1001E4004FF0FF3000F06EB9ADF1080C6DE904CEAC
:1001F40000F006F8DDF804E0DDE9022304B07047FE
:100204002DE9F047089D04468C46002B40F083807E
:100214008A42174647D9B2FA82F242B1C2F12000AB
:1002240024FA00F09140974040EA010C94404FEAD0
:100234001748230CBCFBF8F61FFA87FE08FB16C10F
:1002440043EA014306FB0EF1994209D9FB1806F172
:10025400FF3080F01981994240F21681023E3B44FE
:100264005B1AA4B2B3FBF8F008FB103344EA03446E
:1002740000FB0EFEA64509D93C1900F1FF3380F0BE
:100284000581A64540F2028102383C4440EA06401A
:10029400A4EB0E0400261DB1D4400023C5E900439D
:1002A4003146BDE8F08702B9FFDEB2FA82F2002AD5
:1002B40050D1CB1B4FEA174E1FFA87F80126B3FB28
:1002C400FEFC210C0EFB1C3341EA034108FB0CF33A
:1002D4008B4207D979180CF1FF3002D28B4200F21D
:1002E400E9808446C91AA3B2B1FBFEF00EFB1011DB
:1002F40043EA014408FB00F8A04507D93C1900F182
:10030400FF3302D2A04500F2D9801846A4EB0804BA
:1003140040EA0C40BFE78B4209D9002D00F0B180C0
:100324000026C5E9000130463146BDE8F087B3FA3E
:1003340083F6002E4AD18B4202D3824200F2B88067
:10034400841A61EB030101208C46002DA8D0C5E975
:10035400004CA5E7C2F1200320FA03F6974001FA06
:1003640002F04FEA174ED9403043030CB1FBFEF6BE
:100374001FFA87F80EFB161143EA014306FB08F146
:10038400994204FA02F409D9FB1806F1FF3C80F003
:100394008D80994240F28A80023E3B445B1A81B2CE
:1003A400B3FBFEF00EFB103341EA034100FB08F3FC
:1003B4008B4207D9791800F1FF3C73D28B4271D973
:1003C40002383944CB1A40EA064678E7C6F1200CD5
:1003D40003FA06F422FA0CF31C4320FA0CF701FA90
:1003E40006F34FEA144E21FA0CF11F433B0CB1FB08
:1003F400FEF91FFA84F80EFB191143EA014109FBC7
:1004040008FA8A4502FA06F200FA06F308D96118D6
:1004140009F1FF3048D28A4546D9A9F1020921449D
:10042400A1EB0A01BFB2B1FBFEF00EFB101147EACB
:10043400014700FB08F8B84507D9E71900F1FF3177
:100444002ED2B8452CD90238274440EA0940A7EBFC
:100454000807A0FB02894F45C64649461AD317D060
:100464005DB1B3EB0E0267EB010707FA0CFCF24037
:100474004CEA0202F740C5E9002700263146BDE8F0
:10048400F0872E4628460BE70646E9E61846FDE6C1
:100494004345E5D2B8EB020E69EB04010138DFE70E
:1004A4000846D2E760468DE78146B9E7664675E7B8
:1004B40030464AE7ACF1020C394413E702383C44B5
:1004C40024E700BF704700BF80B582B000AF0023AF
:1004D4007B6000F001FD00F02DF900F0ABFA00F0B4
:1004E40055FA00F087F900F0D7F900F079FA8B4853
:1004F40001F0FAFE0021894802F09EF804218748A1
:1005040001F054FF01228649864802F0F0FC0121E3
:10051400854801F043FA0346002B14D0012201213F
:10052400824801F053FA00220221804801F04EFA79
:10053400002204217D4801F049FA002210217B4861
:1005440001F044FA67E00221774801F027FA0346F4
:10055400002B1BD00121744801F020FA0346002B24
:1005640014D101220221714801F030FA0022042141
:100574006E4801F02BFA002201216C4801F026FAA2
:1005840000221021694801F021FA44E00421664860
:1005940001F004FA0346002B1BD00221624801F04B
:1005A400FDF90346002B14D1012204215F4801F018
:1005B4000DFA002202215D4801F008FA002201210F
:1005C4005A4801F003FA00221021584801F0FEF9BC
:1005D40021E00821544801F0E1F90346002B1AD028
:1005E4000221514801F0DAF90346002B13D101220C
:1005F40010214E4801F0EAF9002204214B4801F091
:10060400E5F900220121494801F0E0F90022022124
:10061400464801F0DBF94FF48071454801F0BEF91A
:100624000346002B0CD001224FF480413F4801F0D7
:10063400CDF900224FF400413C4801F0C7F913E022
:100644004FF480613A4801F0A9F90346002B0BD01E
:1006540001224FF40041354801F0B8F900224FF46B
:100664008041324801F0B2F94FF40061304801F0A2
:1006740095F90346002B0CD001224FF480512B48EE
:1006840001F0A4F900224FF40051284801F09EF92A
:1006940013E04FF40071244801F080F90346002B65
:1006A4000BD001224FF40051204801F08FF90022B1
:1006B4004FF480511D4801F089F901211C4801F0D3
:1006C4006DF90346012B05D101224021184801F0A0
:1006D4007DF90FE000224021154801F077F909E087
:1006E4004FF080427B6853637B6846337B60012014
:1006F40000F064FC7B684FF6FE729342F0DD09E083
:100704004FF080427B6853637B68463B7B600120EB
:1007140000F054FC7B68002BF2DCF8E62800002093
:10072400B8000020BC000020000802400004024081
:100734000000024080B594B000AF07F120033022DE
:100744000021184602F02AFE07F10C0300221A6069
:100754005A609A60DA601A610023BB60234B1B6CF9
:10076400224A43F080531364204B1B6C03F08053E4
:10077400BB60BB6800237B601D4B1B6823F44043B4
:100784001B4A43F400431360194B1B6803F44043B2
:100794007B607B6802233B620123FB6210233B6383
:1007A4000023BB6307F12003184601F029F903462F
:1007B400002B01D000F0DEF90F23FB6000233B6126
:1007C40000237B614FF48053BB610023FB6107F17D
:1007D4000C030021184601F08BFB0346002B01D0CB
:1007E40000F0C8F900BF5037BD4680BD0038024054
:1007F4000070004080B584B000AF3B4600221A6010
:100804005A609A60DA60214B214A1A601F4B002219
:100814005A601E4B00229A601C4B00221A611B4B2B
:1008240000221A76194B002283F82020174B00224D
:10083400DA62164B174A9A62144B0022DA60134BA1
:100844000122DA61114B002283F830200F4B012280
:100854005A610E4800F0D6FB0346002B01D000F08D
:1008640089F90A233B6001237B600023BB603B467C
:100874001946064800F00AFC0346002B01D000F09C
:1008840079F900BF1037BD4680BD00BF700000205D
:10089400002001400100000F80B58AB000AF07F1CD
:1008A400200300221A605A603B1D00221A605A601D
:1008B4009A60DA601A615A619A61324B324A1A605C
:1008C400304B00225A602F4B00229A602D4B4FF67A
:1008D400FF72DA602B4B00221A612A4B00229A61C4
:1008E400284801F059FE0346002B01D000F042F9DC
:1008F40000233B6200237B6207F120031946214851
:1009040002F03AFA0346002B01D000F033F96023D9
:100914007B600023BB600023FB6000237B613B1DE5
:1009240000221946174801F037FF0346002B01D077
:1009340000F020F93B1D04221946124801F02CFF57
:100944000346002B01D000F015F93B1D082219467F
:100954000C4801F021FF0346002B01D000F00AF9F6
:100964003B1D0C221946074801F016FF0346002BD5
:1009740001D000F0FFF8034800F090F900BF2837D9
:10098400BD4680BD280000200008004080B500AFAF
:10099400114B124A1A60104B4FF4E1325A600E4B5D
:1009A40000229A600C4B0022DA600B4B00221A6181
:1009B400094B0C225A61084B00229A61064B002213
:1009C400DA61054802F046FA0346002B01D000F034
:1009D400D1F800BF80BD00BF0001002000440040EA
:1009E40080B500AF114B124A1A60104B4FF41652E7
:1009F4005A600E4B00229A600C4B0022DA600B4BBB
:100A040000221A61094B0C225A61084B00229A6198
:100A1400064B0022DA61054802F01CFA0346002B5B
:100A240001D000F0A7F800BF80BD00BFBC000020CB
:100A34000014014080B58AB000AF07F1140300220E
:100A44001A605A609A60DA601A6100233B61444B71
:100A54001B6B434A43F004031363414B1B6B03F0CA
:100A640004033B613B690023FB603D4B1B6B3C4A29
:100A740043F0800313633A4B1B6B03F08003FB606A
:100A8400FB680023BB60364B1B6B354A43F0010304
:100A94001363334B1B6B03F00103BB60BB68002380
:100AA4007B602F4B1B6B2E4A43F0020313632C4BCA
:100AB4001B6B03F002037B607B6800224FF47661BA
:100AC400284800F083FF00224FF20741264800F037
:100AD4007DFF4FF400537B61244BBB610023FB611A
:100AE40007F114031946224800F0D4FD3C237B612E
:100AF4000023BB610023FB6107F1140319461C4862
:100B040000F0C8FD03237B610023BB610023FB616C
:100B140007F114031946134800F0BCFD4FF4766343
:100B24007B610123BB610023FB6100233B6207F16E
:100B3400140319460B4800F0ADFD4FF207437B61E7
:100B44000123BB610023FB6100233B6207F1140313
:100B54001946054800F09EFD00BF2837BD4680BDFC
:100B6400003802400000024000040240000021104E
:100B74000008024080B400AF72B600BFFEE7000078
:100B840080B582B000AF00237B60104B5B6C0F4AD2
:100B940043F4804353640D4B5B6C03F480437B60EC
:100BA4007B6800233B60094B1B6C084A43F080536D
:100BB4001364064B1B6C03F080533B603B680720B7
:100BC40000F034FD00BF0837BD4680BD0038024048
:100BD40080B58AB000AF786007F1140300221A6070
:100BE4005A609A60DA601A617B681B68174A9342FC
:100BF40027D100233B61164B5B6C154A43F4807389
:100C04005364134B5B6C03F480733B613B690023B7
:100C1400FB600F4B1B6B0E4A43F0040313630C4B36
:100C24001B6B03F00403FB60FB6803237B6103235A
:100C3400BB610023FB6107F114031946054800F06A
:100C440029FD00BF2837BD4680BD00BF00200140FC
:100C5400003802400008024080B485B000AF7860DC
:100C64007B681B680B4A93420DD10023FB600A4B3F
:100C74001B6C094A43F004031364074B1B6C03F019
:100C84000403FB60FB6800BF1437BD465DF8047BBA
:100C9400704700BF000800400038024080B588B0AB
:100CA40000AF786007F10C0300221A605A609A6062
:100CB400DA601A617B681B68124A93421ED10023D2
:100CC400BB60114B1B6B104A43F0020313630E4BC2
:100CD4001B6B03F00203BB60BB684FF47073FB60D3
:100CE40002233B6100237B610023BB610223FB6180
:100CF40007F10C031946054800F0CCFC00BF20376F
:100D0400BD4680BD00080040003802400004024097
:100D140080B58CB000AF786007F11C0300221A6024
:100D24005A609A60DA601A617B681B68324A93429F
:100D34002CD10023BB61314B1B6C304A43F400338C
:100D440013642E4B1B6C03F40033BB61BB6900239B
:100D54007B612A4B1B6B294A43F001031363274B26
:100D64001B6B03F001037B617B690C23FB61022392
:100D74003B6200237B620023BB620723FB6207F113
:100D84001C0319461E4800F085FC30E07B681B6894
:100D94001C4A93422BD100233B61184B5B6C174ACE
:100DA40043F020035364154B5B6C03F020033B6159
:100DB4003B690023FB60114B1B6B104A43F0040397
:100DC40013630E4B1B6B03F00403FB60FB68C0232F
:100DD400FB6102233B6200237B620323BB62082383
:100DE400FB6207F11C031946074800F053FC00BFDF
:100DF4003037BD4680BD00BF00440040003802408B
:100E040000000240001401400008024080B400AF1A
:100E1400FEE780B400AFFEE780B400AFFEE780B425
:100E240000AFFEE780B400AFFEE780B400AF00BFC0
:100E3400BD465DF8047B704780B400AF00BFBD467B
:100E44005DF8047B704780B400AF00BFBD465DF819
:100E5400047B704780B500AF00F090F800BF80BD00
:100E640080B400AF064BD3F88830054A43F47003CE
:100E7400C2F8883000BFBD465DF8047B704700BFF0
:100E840000ED00E0DFF834D00D480E490E4A00238F
:100E940002E0D458C4500433C4188C42F9D30B4A2A
:100EA4000B4C002301E013600432A242FBD3FFF792
:100EB400D7FF02F04FFAFFF707FB704700800120CD
:100EC400000000200C000020F03300080C0000207B
:100ED40048010020FEE7000080B500AF0E4B1B6800
:100EE4000D4A43F4007313600B4B1B680A4A43F426
:100EF40080631360084B1B68074A43F480731360D4
:100F0400032000F093FB002000F008F8FFF738FE00
:100F14000023184680BD00BF003C024080B582B06B
:100F240000AF7860124B1A68124B1B7819464FF4C5
:100F34007A73B3FBF1F3B2FBF3F3184600F09DFBB5
:100F44000346002B01D001230EE07B680F2B0AD847
:100F5400002279684FF0FF3000F073FB064A7B688B
:100F64001360002300E0012318460837BD4680BD06
:100F740000000020080000200400002080B400AF1E
:100F8400064B1B781A46064B1B681344044A13602D
:100F940000BFBD465DF8047B704700BF0800002019
:100FA4004401002080B400AF034B1B681846BD46C3
:100FB4005DF8047B704700BF4401002080B584B015
:100FC40000AF7860FFF7EEFFB8607B68FB60FB68FA
:100FD400B3F1FF3F05D00A4B1B781A46FB68134454
:100FE400FB6000BFFFF7DEFF0246BB68D31AFA6856
:100FF4009A42F7D800BF00BF1037BD4680BD00BF7E
:101004000800002080B584B000AF78600023FB7333
:101014007B68002B01D1012333E07B681B6C002B20
:1010240009D17868FFF7D4FD7B6800225A647B6895
:10103400002283F83C207B681B6C03F01003002B18
:1010440018D17B681B6C23F4885323F0020343F00C
:1010540002027B681A64786800F03AF97B6800221F
:101064005A647B681B6C23F0030343F001027B6822
:101074001A6401E00123FB737B68002283F83C209F
:10108400FB7B18461037BD4680BD000080B485B098
:1010940000AF786039600023BB607B6893F83C3014
:1010A400012B01D1022305E17B68012283F83C2056
:1010B4003B681B68092B25D97B681B68D9683B688A
:1010C4001B689BB21A4613465B0013441E3B07225F
:1010D40002FA03F3DA437B681B680A40DA607B6830
:1010E4001B68D9683B689A683B681B689BB21846C2
:1010F40003465B0003441E3B9A407B681B680A431B
:10110400DA6022E07B681B6819693B681B689BB244
:101114001A4613465B001344072202FA03F3DA4328
:101124007B681B680A401A617B681B6819693B6805
:101134009A683B681B689BB2184603465B000344ED
:101144009A407B681B680A431A613B685B68062BFC
:1011540024D87B681B68596B3B685A6813469B000C
:101164001344053B1F2202FA03F3DA437B681B682E
:101174000A405A637B681B68596B3B681B689BB2C7
:1011840018463B685A6813469B001344053B00FA13
:1011940003F27B681B680A435A634CE03B685B6854
:1011A4000C2B24D87B681B68196B3B685A68134660
:1011B4009B001344233B1F2202FA03F3DA437B68A8
:1011C4001B680A401A637B681B68196B3B681B68C1
:1011D4009BB218463B685A6813469B001344233B52
:1011E40000FA03F27B681B680A431A6323E07B68F6
:1011F4001B68D96A3B685A6813469B001344413BF9
:101204001F2202FA03F3DA437B681B680A40DA629E
:101214007B681B68D96A3B681B689BB218463B68AD
:101224005A6813469B001344413B00FA03F27B685F
:101234001B680A43DA62224BFB607B681B68214A05
:10124400934209D13B681B68122B05D1FB685B688C
:1012540043F48002FB685A607B681B68194A934216
:1012640023D13B681B68102B03D03B681B68112BF0
:101274001BD1FB685B6843F40002FB685A603B685F
:101284001B68102B11D1104B1B68104AA2FB0323BF
:101294009A0C13469B0013445B00BB6002E0BB68DE
:1012A400013BBB60BB68002BF9D17B68002283F84B
:1012B4003C20002318461437BD465DF8047B704774
:1012C40000230140002001400000002083DE1B4376
:1012D40080B485B000AF7860794BFB60FB685B68D5
:1012E40023F44032FB685A60FB685A687B685B6889
:1012F4001A43FB685A607B681B685A687B681B68E2
:1013040022F480725A607B681B6859687B681B6989
:101314001A027B681B680A435A607B681B685A6818
:101324007B681B6822F040725A607B681B685968AE
:101334007B689A687B681B680A435A607B681B68F1
:101344009A687B681B6822F400629A607B681B6859
:1013540099687B68DA687B681B680A439A607B68D3
:101364009B6A584A934222D07B681B689A687B68C0
:101374001B6822F070629A607B681B6899687B68BE
:101384009A6A7B681B680A439A607B681B689A6840
:101394007B681B6822F040529A607B681B689968DE
:1013A4007B68DA6A7B681B680A439A600FE07B6893
:1013B4001B689A687B681B6822F070629A607B687D
:1013C4001B689A687B681B6822F040529A607B68AD
:1013D4001B689A687B681B6822F002029A607B682B
:1013E4001B6899687B681B7E5A007B681B680A43EC
:1013F4009A607B6893F82030002B1BD07B681B68B5
:101404005A687B681B6842F400625A607B681B68F8
:101414005A687B681B6822F460425A607B681B68C8
:1014240059687B685B6A013B5A037B681B680A4303
:101434005A6007E07B681B685A687B681B6822F463
:1014440000625A607B681B68DA6A7B681B6822F456
:101454007002DA627B681B68D96A7B68DB69013BCE
:101464001A057B681B680A43DA627B681B689A6802
:101474007B681B6822F400729A607B681B68996819
:101484007B6893F830305A027B681B680A439A6081
:101494007B681B689A687B681B6822F480629A6088
:1014A4007B681B6899687B685B699A027B681B6828
:1014B4000A439A6000BF1437BD465DF8047B704749
:1014C400002301400100000F80B485B000AF7860B4
:1014D4007B6803F00703FB600C4BDB68BB60BA68F6
:1014E4004FF6FF031340BB60FB681A02BB6813434B
:1014F40043F0BF6343F40033BB60044ABB68D3606A
:1015040000BF1437BD465DF8047B704700ED00E072
:1015140080B400AF044BDB681B0A03F007031846D2
:10152400BD465DF8047B704700ED00E080B483B0F5
:1015340000AF03463960FB7197F90730002B0ADBD3
:101544003B68DAB20C4997F907301201D2B20B4466
:1015540083F800230AE03B68DAB20849FB7903F018
:101564000F03043B1201D2B20B441A7600BF0C37AE
:10157400BD465DF8047B704700E100E000ED00E04B
:1015840080B489B000AFF860B9607A60FB6803F09A
:101594000703FB61FB69C3F10703042B28BF042382
:1015A400BB61FB690433062B02D9FB69033B00E0F2
:1015B40000237B614FF0FF32BB6902FA03F3DA4385
:1015C400BB681A407B699A404FF0FF317B6901FA8E
:1015D40003F3D9437B680B40134318462437BD46B5
:1015E4005DF8047B7047000080B582B000AF78607E
:1015F4007B68013BB3F1807F01D301230FE00A4AEA
:101604007B68013B53600F214FF0FF30FFF78EFFE3
:10161400054B00229A60044B07221A6000231846E7
:101624000837BD4680BD00BF10E000E080B582B041
:1016340000AF78607868FFF747FF00BF0837BD4602
:1016440080BD80B586B000AF0346B9607A60FB7395
:1016540000237B61FFF75CFF78617A68B968786979
:10166400FFF78EFF024697F90F3011461846FFF731
:101674005DFF00BF1837BD4680BD80B582B000AFA6
:1016840078607868FFF7B0FF034618460837BD4610
:1016940080BD000080B489B000AF78603960002359
:1016A4007B6100233B610023BB610023FB6159E1A3
:1016B4000122FB6902FA03F37B613B681B687A69C8
:1016C40013403B613A697B699A4240F048813B6828
:1016D4005B6803F00303012B05D03B685B6803F0F0
:1016E4000303022B30D17B689B68BB61FB695B0001
:1016F400032202FA03F3DB43BA691340BB613B687C
:10170400DA68FB695B0002FA03F3BA691343BB614D
:101714007B68BA699A607B685B68BB610122FB697C
:1017240002FA03F3DB43BA691340BB613B685B68AD
:101734001B0903F00102FB6902FA03F3BA691343BC
:10174400BB617B68BA695A603B685B6803F003035A
:10175400032B17D07B68DB68BB61FB695B0003224A
:1017640002FA03F3DB43BA691340BB613B689A682E
:10177400FB695B0002FA03F3BA691343BB617B683C
:10178400BA69DA603B685B6803F00303022B23D178
:10179400FB69DA087B68083253F82230BB61FB69C5
:1017A40003F007039B000F2202FA03F3DB43BA6939
:1017B4001340BB613B681A69FB6903F007039B0094
:1017C40002FA03F3BA691343BB61FB69DA087B6865
:1017D4000832B96943F822107B681B68BB61FB6956
:1017E4005B00032202FA03F3DB43BA691340BB61D3
:1017F4003B685B6803F00302FB695B0002FA03F3D6
:10180400BA691343BB617B68BA691A603B685B6859
:1018140003F08053002B00F0A2800023FB60574BA1
:101824005B6C564A43F480435364544B5B6C03F43F
:101834008043FB60FB68524AFB699B08023352F801
:101844002330BB61FB6903F003039B000F2202FA00
:1018540003F3DB43BA691340BB617B68494A934293
:1018640019D07B68484A934213D07B68474A934215
:101874000DD07B68464A934207D07B68454A934221
:1018840001D1042308E0072306E0032304E0022334
:1018940002E0012300E00023FA6902F0030292004F
:1018A4009340BA691343BB613549FB699B08023312
:1018B400BA6941F82320384B1B68BB613B69DB43A1
:1018C400BA691340BB613B685B6803F48033002B47
:1018D40003D0BA693B691343BB612F4ABB691360E8
:1018E4002D4B5B68BB613B69DB43BA691340BB6149
:1018F4003B685B6803F40033002B03D0BA693B698F
:101904001343BB61244ABB695360234B9B68BB618F
:101914003B69DB43BA691340BB613B685B6803F412
:101924008013002B03D0BA693B691343BB611A4A85
:10193400BB699360184BDB68BB613B69DB43BA69E5
:101944001340BB613B685B6803F40013002B03D0B6
:10195400BA693B691343BB610F4ABB69D360FB6936
:101964000133FB61FB690F2B7FF6A2AE00BF00BF02
:101974002437BD465DF8047B704700BF0038024041
:101984000038014000000240000402400008024008
:10199400000C024000100240003C014080B485B0BD
:1019A40000AF78600B467B807B681A697B881340A4
:1019B400002B02D00123FB7301E00023FB73FB7BAC
:1019C40018461437BD465DF8047B704780B483B075
:1019D40000AF78600B467B8013467B707B78002BCE
:1019E40003D07A887B689A6103E07B881A047B6859
:1019F4009A6100BF0C37BD465DF8047B7047000058
:101A040080B586B000AF78607B68002B01D10123DC
:101A140064E27B681B6803F00103002B75D0A34BC1
:101A24009B6803F00C03042B0CD0A04B9B6803F0C1
:101A34000C03082B12D19D4B5B6803F48003B3F5B0
:101A4400800F0BD1994B1B6803F40033002B5BD040
:101A54007B685B68002B57D101233FE27B685B689E
:101A6400B3F5803F06D1914B1B68904A43F4803311
:101A740013601DE07B685B68B3F5A02F0CD18B4B22
:101A84001B688A4A43F480231360884B1B68874A87
:101A940043F4803313600BE0844B1B68834A23F4C4
:101AA40080331360814B1B68804A23F480231360C6
:101AB4007B685B68002B13D0FFF774FA386108E089
:101AC400FFF770FA02463B69D31A642B01D903234A
:101AD40004E2764B1B6803F40033002BF0D014E0CF
:101AE400FFF760FA386108E0FFF75CFA02463B69E9
:101AF400D31A642B01D90323F0E16C4B1B6803F464
:101B04000033002BF0D100E000BF7B681B6803F0BA
:101B14000203002B63D0654B9B6803F00C03002B7E
:101B24000BD0624B9B6803F00C03082B1CD15F4B5A
:101B34005B6803F48003002B16D15C4B1B6803F035
:101B44000203002B05D07B68DB68012B01D0012345
:101B5400C4E1564B1B6823F0F8027B681B69DB0069
:101B6400524913430B603AE07B68DB68002B20D0BA
:101B74004F4B01221A60FFF715FA386108E0FFF7AE
:101B840011FA02463B69D31A022B01D90323A5E1BA
:101B9400464B1B6803F00203002BF0D0434B1B6839
:101BA40023F0F8027B681B69DB00404913430B6098
:101BB40015E03F4B00221A60FFF7F4F9386108E0A2
:101BC400FFF7F0F902463B69D31A022B01D903232C
:101BD40084E1364B1B6803F00203002BF0D17B68D1
:101BE4001B6803F00803002B30D07B685B69002B73
:101BF40016D0304B01221A60FFF7D4F9386108E09F
:101C0400FFF7D0F902463B69D31A022B01D903230B
:101C140064E1264B5B6F03F00203002BF0D015E068
:101C2400244B00221A60FFF7BDF9386108E0FFF782
:101C3400B9F902463B69D31A022B01D903234DE1BA
:101C44001A4B5B6F03F00203002BF0D17B681B6817
:101C540003F00403002B00F0A0800023FB75134B5A
:101C64001B6C03F08053002B0FD10023BB600F4B80
:101C74001B6C0E4A43F0805313640C4B1B6C03F033
:101C84008053BB60BB680123FB750B4B1B6803F4DB
:101C94008073002B21D1084B1B68074A43F48073DF
:101CA4001360FFF77FF9386111E000BF003802408C
:101CB40000004742800E474200700040FFF772F96F
:101CC40002463B69D31A022B01D9032306E1854B53
:101CD4001B6803F48073002BF0D07B689B68012B96
:101CE40006D1814B1B6F804A43F0010313671CE04C
:101CF4007B689B68052B0CD17B4B1B6F7A4A43F0A6
:101D040004031367784B1B6F774A43F0010313678F
:101D14000BE0754B1B6F744A23F001031367724B7E
:101D24001B6F714A23F0040313677B689B68002BC5
:101D340015D0FFF737F938610AE0FFF733F90246A7
:101D44003B69D31A41F28832934201D90323C5E097
:101D5400654B1B6F03F00203002BEED014E0FFF77A
:101D640021F938610AE0FFF71DF902463B69D31AED
:101D740041F28832934201D90323AFE05A4B1B6FDF
:101D840003F00203002BEED1FB7D012B05D1564B52
:101D94001B6C554A23F0805313647B689B69002BAA
:101DA40000F09B80504B9B6803F00C03082B5CD025
:101DB4007B689B69022B41D14C4B00221A60FFF7D0
:101DC400F1F8386108E0FFF7EDF802463B69D31AF1
:101DD400022B01D9032381E0434B1B6803F00073FA
:101DE400002BF0D17B68DA697B681B6A1A437B6835
:101DF4005B6A9B011A437B689B6A5B08013B1B047B
:101E04001A437B68DB6A1B06374913434B60374B25
:101E140001221A60FFF7C6F8386108E0FFF7C2F83C
:101E240002463B69D31A022B01D9032356E02E4BF9
:101E34001B6803F00073002BF0D04EE02B4B002204
:101E44001A60FFF7AFF8386108E0FFF7ABF8024615
:101E54003B69D31A022B01D903233FE0224B1B68B1
:101E640003F00073002BF0D137E07B689B69012BF2
:101E740001D1012332E01C4B5B68FB607B689B69EA
:101E8400012B28D0FB6803F480027B68DB699A424B
:101E940021D1FB6803F03F027B681B6A9A421AD186
:101EA400FA6847F6C07313407A68526A9201934203
:101EB40011D1FB6803F440327B689B6A5B08013BE9
:101EC4001B049A4207D1FB6803F070627B68DB6AEB
:101ED4001B069A4201D0012300E00023184618375C
:101EE400BD4680BD0070004000380240600047429B
:101EF40080B584B000AF786039607B68002B01D175
:101F04000123CCE0684B1B6803F007033A689A424C
:101F14000CD9654B3A68D2B21A70634B1B6803F054
:101F240007033A689A4201D00123B8E07B681B6832
:101F340003F00203002B20D07B681B6803F004032A
:101F4400002B05D0594B9B68584A43F4E0539360E7
:101F54007B681B6803F00803002B05D0534B9B6878
:101F6400524A43F460439360504B9B6823F0F00261
:101F74007B689B684D4913438B607B681B6803F047
:101F84000103002B44D07B685B68012B07D1474BCE
:101F94001B6803F40033002B19D101237FE07B6815
:101FA4005B68022B03D07B685B68032B07D13F4B34
:101FB4001B6803F00073002B09D101236FE03B4B36
:101FC4001B6803F00203002B01D1012367E0374BA8
:101FD4009B6823F003027B685B68344913438B607E
:101FE400FEF7E0FFF8600AE0FEF7DCFF0246FB685C
:101FF400D31A41F28832934201D903234FE02B4B89
:102004009B6803F00C027B685B689B009A42EBD1EF
:10201400254B1B6803F007033A689A420CD2224B03
:102024003A68D2B21A70204B1B6803F007033A686F
:102034009A4201D0012332E07B681B6803F0040359
:10204400002B08D0194B9B6823F4E0527B68DB68B3
:10205400164913438B607B681B6803F00803002B4D
:1020640009D0124B9B6823F460427B681B69DB0038
:102074000E4913438B6000F021F802460B4B9B681A
:102084001B0903F00F030A49CB5C22FA03F3094A44
:102094001360094B1B681846FEF740FF00231846DF
:1020A4001037BD4680BD00BF003C024000380240EE
:1020B400C833000800000020040000202DE9B043CC
:1020C40084B000AF00237B600023FB6000233B60EF
:1020D4000023BB60674B9B6803F00C03082B0DD0F7
:1020E400082B00F2BD80002B02D0042B03D0B7E0F4
:1020F400614BBB60B7E0614BBB60B4E05D4B5B68B8
:1021040003F03F037B605B4B5B6803F48003002BAD
:102114004DD0584B5B689B091A464FF0000340F2C0
:10212400FF104FF0000102EA000803EA01094046EB
:1021340049464FF000024FF000034B0143EAD063DD
:10214400420110461946B0EB080061EB09014FF05B
:1021540000024FF000038B0143EA90638201121ADC
:1021640063EB01034FF000004FF00001D90041EA96
:102174005271D00002460B4612EB080243EB0903EE
:102184004FF000004FF00001590241EAD2515002D1
:1021940002460B46104619467B681A464FF0000368
:1021A400FEF716F802460B461346FB604AE0314B35
:1021B4005B689B091A464FF0000340F2FF104FF092
:1021C400000102EA000403EA0105204629464FF013
:1021D40000024FF000034B0143EAD0634201104672
:1021E4001946001B61EB05014FF000024FF000039C
:1021F4008B0143EA90638201121A63EB01034FF0EF
:1022040000004FF00001D90041EA5271D0000246AB
:102214000B46121945EB03034FF000004FF0000189
:10222400990241EA9251900202460B461046194621
:102234007B681A464FF00003FDF7CAFF02460B46BF
:102244001346FB600B4B5B681B0C03F00303013369
:102254005B003B60FA683B68B2FBF3F3BB6002E0EF
:10226400054BBB6000BFBB6818461037BD46BDE8D0
:10227400B08300BF003802400024F40000127A004A
:1022840080B400AF034B1B681846BD465DF8047B61
:10229400704700BF0000002080B500AFFFF7F0FFDB
:1022A4000246054B9B689B0A03F007030349CB5C7A
:1022B40022FA03F3184680BD00380240D8330008E0
:1022C40080B500AFFFF7DCFF0246054B9B685B0B54
:1022D40003F007030349CB5C22FA03F3184680BDDD
:1022E40000380240D833000880B485B000AF78606D
:1022F4007B6893F83D30DBB2012B01D0012344E02D
:102304007B68022283F83D207B681B68DA687B685F
:102314001B6842F00102DA607B681B681E4A934224
:1023240018D07B681B68B3F1804F13D07B681B689F
:102334001A4A93420ED07B681B68194A934209D00B
:102344007B681B68174A934204D07B681B68164A53
:10235400934211D17B681B689B6803F00703FB6001
:10236400FB68062B10D07B681B681A687B681B68A7
:1023740042F001021A6007E07B681B681A687B68F8
:102384001B6842F001021A60002318461437BD4648
:102394005DF8047B704700BF00000140000400406A
:1023A40000080040000C00400040014080B584B0AB
:1023B40000AF786039603B68002B09D17B6893F8E3
:1023C4003E30DBB2012B14BF01230023DBB222E039
:1023D4003B68042B09D17B6893F83F30DBB2012BB7
:1023E40014BF01230023DBB215E03B68082B09D19D
:1023F4007B6893F84030DBB2012B14BF0123002328
:10240400DBB208E07B6893F84130DBB2012B14BFE8
:1024140001230023DBB2002B01D00123AEE03B6893
:10242400002B04D17B68022283F83E2013E03B6832
:10243400042B04D17B68022283F83F200BE03B6825
:10244400082B04D17B68022283F8402003E07B68D8
:10245400022283F841203B680C2B41D801A252F898
:1024640023F000BF9D240008E5240008E5240008AB
:10247400E5240008AF240008E5240008E52400084A
:10248400E5240008C1240008E5240008E524000828
:10249400E5240008D32400087B681B68DA687B689D
:1024A4001B6842F00202DA601BE07B681B68DA6892
:1024B4007B681B6842F00402DA6012E07B681B68E8
:1024C400DA687B681B6842F00802DA6009E07B681E
:1024D4001B68DA687B681B6842F01002DA6000E06F
:1024E40000BF7B681B6801223968184600F01EFC97
:1024F4007B681B68234A934207D17B681B685A6C2C
:102504007B681B6842F400425A647B681B681D4A5E
:10251400934218D07B681B68B3F1804F13D07B685B
:102524001B68194A93420ED07B681B68174A934272
:1025340009D07B681B68164A934204D07B681B68E9
:10254400144A934211D17B681B689B6803F007030C
:10255400FB60FB68062B10D07B681B681A687B68DD
:102564001B6842F001021A6007E07B681B681A6866
:102574007B681B6842F001021A600023184610377A
:10258400BD4680BD0000014000040040000800403A
:10259400000C00400040014080B582B000AF78607C
:1025A4007B68002B01D1012341E07B6893F83D3027
:1025B400DBB2002B06D17B68002283F83C207868CC
:1025C400FEF74AFB7B68022283F83D207B681A6889
:1025D4007B6804331946104600F09CF97B6801229D
:1025E40083F846207B68012283F83E207B68012221
:1025F40083F83F207B68012283F840207B68012216
:1026040083F841207B68012283F842207B68012201
:1026140083F843207B68012283F844207B680122ED
:1026240083F845207B68012283F83D200023184667
:102634000837BD4680BD000080B584B000AF786027
:1026440039603B68002B09D17B6893F83E30DBB2DC
:10265400012B14BF01230023DBB222E03B68042BCF
:1026640009D17B6893F83F30DBB2012B14BF0123FF
:102674000023DBB215E03B68082B09D17B6893F893
:102684004030DBB2012B14BF01230023DBB208E08E
:102694007B6893F84130DBB2012B14BF0123002384
:1026A400DBB2002B01D0012368E03B68002B04D18E
:1026B4007B68022283F83E2013E03B68042B04D19C
:1026C4007B68022283F83F200BE03B68082B04D18F
:1026D4007B68022283F8402003E07B68022283F8AF
:1026E40041207B681B6801223968184600F01EFBF4
:1026F4007B681B68234A934207D17B681B685A6C2A
:102704007B681B6842F400425A647B681B681D4A5C
:10271400934218D07B681B68B3F1804F13D07B6859
:102724001B68194A93420ED07B681B68174A934270
:1027340009D07B681B68164A934204D07B681B68E7
:10274400144A934211D17B681B689B6803F007030A
:10275400FB60FB68062B10D07B681B681A687B68DB
:102764001B6842F001021A6007E07B681B681A6864
:102774007B681B6842F001021A6000231846103778
:10278400BD4680BD00000140000400400008004038
:10279400000C00400040014080B584B000AFF860F8
:1027A400B9607A60FB6893F83C30012B01D10223B5
:1027B400ACE0FB68012283F83C207B680C2B00F220
:1027C4009F8001A252F823F001280008052900087F
:1027D40005290008052900084128000805290008E2
:1027E4000529000805290008832800080529000890
:1027F4000529000805290008C3280008FB681B6890
:10280400B968184600F006F9FB681B689A69FB680A
:102814001B6842F008029A61FB681B689A69FB68AE
:102824001B6822F004029A61FB681B689969BB6803
:102834001A69FB681B680A439A6162E0FB681B68BB
:10284400B968184600F04CF9FB681B689A69FB6884
:102854001B6842F400629A61FB681B689A69FB6812
:102864001B6822F480629A61FB681B689969BB68E3
:102874001B691A02FB681B680A439A6141E0FB6802
:102884001B68B968184600F097F9FB681B68DA6999
:10289400FB681B6842F00802DA61FB681B68DA69AE
:1028A400FB681B6822F00402DA61FB681B68D969C3
:1028B400BB681A69FB681B680A43DA6121E0FB689C
:1028C4001B68B968184600F0E1F9FB681B68DA690F
:1028D400FB681B6842F40062DA61FB681B68DA6912
:1028E400FB681B6822F48062DA61FB681B68D969A3
:1028F400BB681B691A02FB681B680A43DA6100E0C3
:1029040000BFFB68002283F83C20002318461037E0
:10291400BD4680BD80B485B000AF786039607B6807
:102924001B68FB607B68344A93420FD07B68B3F129
:10293400804F0BD07B68314A934207D07B68304A82
:10294400934203D07B682F4A934208D1FB6823F05B
:102954007003FB603B685B68FA681343FB607B6849
:10296400254A93421BD07B68B3F1804F17D07B6814
:10297400224A934213D07B68214A93420FD07B684A
:10298400204A93420BD07B681F4A934207D07B684E
:102994001E4A934203D07B681D4A934208D1FB68C8
:1029A40023F44073FB603B68DB68FA681343FB6005
:1029B400FB6823F080023B685B691343FB607B6820
:1029C400FA681A603B689A687B68DA623B681A683E
:1029D4007B689A627B68084A934203D13B681A6910
:1029E4007B681A637B6801225A6100BF1437BD46B5
:1029F4005DF8047B704700BF000001400004004004
:102A040000080040000C0040004001400044014028
:102A14000048014080B487B000AF786039607B68BB
:102A24001B6A23F001027B681A627B681B6A7B6164
:102A34007B685B683B617B689B69FB60FB6823F098
:102A44007003FB60FB6823F00303FB603B681B68B7
:102A5400FA681343FB607B6923F002037B613B68E4
:102A64009B687A6913437B617B681C4A93420CD14F
:102A74007B6923F008037B613B68DB687A69134355
:102A84007B617B6923F004037B617B68134A934277
:102A940011D13B6923F480733B613B6923F40073D8
:102AA4003B613B685B693A6913433B613B689B69E3
:102AB4003A6913433B617B683A695A607B68FA68F8
:102AC4009A613B685A687B685A637B687A691A62C0
:102AD40000BF1C37BD465DF8047B70470000014011
:102AE40080B487B000AF786039607B681B6A23F0DC
:102AF40010027B681A627B681B6A7B617B685B6877
:102B04003B617B689B69FB60FB6823F4E043FB60EB
:102B1400FB6823F44073FB603B681B681B02FA6884
:102B24001343FB607B6923F020037B613B689B6854
:102B34001B017A6913437B617B681E4A93420DD162
:102B44007B6923F080037B613B68DB681B017A6946
:102B540013437B617B6923F040037B617B68154AE7
:102B6400934213D13B6923F480633B613B6923F4B3
:102B740000633B613B685B699B003A6913433B61BB
:102B84003B689B699B003A6913433B617B683A69E4
:102B94005A607B68FA689A613B685A687B689A63F2
:102BA4007B687A691A6200BF1C37BD465DF8047BF6
:102BB400704700BF0000014080B487B000AF786068
:102BC40039607B681B6A23F480727B681A627B68B5
:102BD4001B6A7B617B685B683B617B68DB69FB60CC
:102BE400FB6823F07003FB60FB6823F00303FB60C6
:102BF4003B681B68FA681343FB607B6923F400732A
:102C04007B613B689B681B027A6913437B617B6829
:102C14001D4A93420DD17B6923F400637B613B68B9
:102C2400DB681B027A6913437B617B6923F480634D
:102C34007B617B68144A934213D13B6923F480532C
:102C44003B613B6923F400533B613B685B691B01B7
:102C54003A6913433B613B689B691B013A6913431F
:102C64003B617B683A695A607B68FA68DA613B6861
:102C74005A687B68DA637B687A691A6200BF1C371A
:102C8400BD465DF8047B70470000014080B487B006
:102C940000AF786039607B681B6A23F480527B68DC
:102CA4001A627B681B6A3B617B685B687B617B683B
:102CB400DB69FB60FB6823F4E043FB60FB6823F4FF
:102CC4004073FB603B681B681B02FA681343FB609C
:102CD4003B6923F400533B613B689B681B033A69DF
:102CE40013433B617B68104A934209D17B6923F407
:102CF40080437B613B685B699B017A6913437B6119
:102D04007B687A695A607B68FA68DA613B685A685A
:102D14007B681A647B683A691A6200BF1C37BD4637
:102D24005DF8047B704700BF0000014080B487B0A9
:102D340000AFF860B9607A60BB6803F01F0301223A
:102D440002FA03F37B61FB681A6A7B69DB431A406E
:102D5400FB681A62FB681A6ABB6803F01F03796890
:102D640001FA03F31A43FB681A6200BF1C37BD461D
:102D74005DF8047B7047000080B485B000AF7860D4
:102D840039607B6893F83C30012B01D1022350E079
:102D94007B68012283F83C207B68022283F83D2073
:102DA4007B681B685B68FB607B681B689B68BB6017
:102DB400FB6823F07003FB603B681B68FA681343ED
:102DC400FB607B681B68FA685A607B681B681C4A56
:102DD400934218D07B681B68B3F1804F13D07B6893
:102DE4001B68184A93420ED07B681B68164A9342AC
:102DF40009D07B681B68154A934204D07B681B6822
:102E0400134A93420CD1BB6823F08003BB603B6838
:102E14005B68BA681343BB607B681B68BA689A60D6
:102E24007B68012283F83D207B68002283F83C20E4
:102E3400002318461437BD465DF8047B704700BF75
:102E4400000001400004004000080040000C004065
:102E54000040014080B582B000AF78607B68002BF1
:102E640001D101233FE07B6893F83D30DBB2002BB6
:102E740006D17B68002283F83C207868FDF748FF80
:102E84007B68242283F83D207B681B68DA687B68B2
:102E94001B6822F40052DA60786800F093F87B68CB
:102EA4001B681A697B681B6822F490421A617B686C
:102EB4001B685A697B681B6822F02A025A617B6886
:102EC4001B68DA687B681B6842F40052DA607B682E
:102ED40000221A647B68202283F83D207B6820222C
:102EE40083F83E20002318460837BD4680BD80B5D0
:102EF40084B000AFF860B9601346FB80FB6893F8B8
:102F04003E30DBB2202B1DD1BB68002B02D0FB88E6
:102F1400002B01D1012316E0FB6893F83C30012B10
:102F240001D102230FE0FB68012283F83C20FB68F7
:102F340000221A63FB881A46B968F86800F007F89B
:102F4400034600E0022318461037BD4680BD80B416
:102F540085B000AFF860B9601346FB80FB68BA68BF
:102F64009A62FB68FA889A85FB68FA88DA85FB68B6
:102F740000221A64FB68222283F83E20FB680022A8
:102F840083F83C20FB681B68DA68FB681B6842F422
:102F94008072DA60FB681B685A69FB681B6842F040
:102FA40001025A61FB681B68DA68FB681B6842F01F
:102FB4002002DA60002318461437BD465DF8047B0E
:102FC400704700002DE9F04F9FB000AFF866FB6E2C
:102FD4001B681B6923F44050FB6ED968FB6E1A68AA
:102FE40040EA01031361FB6E9A68FB6E1B691A4386
:102FF400FB6E5B691A43FB6EDB6913433B67FB6E35
:103004001B68DB6823F4164121F00C01FB6E1A687F
:103014003B6F0B43D360FB6E1B685B6923F440700A
:10302400FB6E9969FB6E1A6840EA01035361FB6EFB
:103034001A68C54B9A4204D0FB6E1A68C34B9A4275
:1030440003D1FFF73DF9786702E0FFF725F97867C8
:10305400FB6EDB69B3F5004F40F0B6807B6F1C4616
:103064004FF0000522462B46911839645B417B647E
:10307400D7E91023121945EB03034FF000004FF07A
:103084000001D90041EA5271D00002460B461119E1
:1030940039666B417B66FB6E5B681A464FF0000332
:1030A4009118B9635B41FB63D7E90E23D7E9180193
:1030B400FDF78EF802460B46A54BA3FB02235B09E2
:1030C4001E017B6F1C464FF0000522462B469118CB
:1030D40039635B417B63D7E90C23121945EB030386
:1030E4004FF000004FF00001D90041EA5271D000C6
:1030F40002460B461119B9656B41FB65FB6E5B68B3
:103104001A464FF000039118B9625B41FB62D7E99C
:103114000A23D7E91601FDF75BF802460B468C4BF0
:10312400A3FB02135B09642101FB03F3D31ADB0045
:103134003233874AA2FB03235B095B0003F4F87371
:103144001E447B6F18464FF0000102460B4694184C
:103154003C625B417B62D7E90823121841EB03030D
:103164004FF000044FF00005DD0045EA5275D4002D
:1031740022462B4614183C654B417B65FB6E5B680D
:103184001A464FF000039118B9615B41FB61D7E91E
:103194000623D7E91401FDF71BF802460B466C4BD6
:1031A400A3FB02135B09642101FB03F3D31ADB00C5
:1031B4003233674AA2FB03235B0903F00702FB6E69
:1031C4001B6832449A60B9E07B6F1C464FF00005DF
:1031D40022462B46911839615B417B61D7E9042370
:1031E400121945EB03034FF000004FF00001D90022
:1031F40041EA5271D00002460B4612EB040843EB3D
:103204000509FB6E5B6818464FF000014FF00002A1
:103214004FF000038B0043EA907382004046494616
:10322400FCF7D6FF02460B46494BA3FB02235B097E
:103234001E017B6F18464FF0000102460B4694189E
:10324400BC605B41FB60D7E90223121841EB030326
:103254004FF000044FF00005DD0045EA5275D4003C
:1032640022462B461418BC644B41FB64FB6E5B681E
:1032740018464FF000014FF000024FF000038B009E
:1032840043EA90738200D7E91201FCF7A1FF0246DA
:103294000B462F4BA3FB02135B09642101FB03F3D1
:1032A400D31A1B0132332A4AA2FB03235B0903F01E
:1032B400F0031E447B6F18464FF0000102460B4694
:1032C40094183C605B417B60D7E90023121841EB02
:1032D40003034FF000044FF00005DD0045EA52758A
:1032E400D40022462B4612EB000A43EB010BFB6E83
:1032F4005B6818464FF000014FF000024FF00003E6
:103304008B0043EA9073820050465946FCF760FFF5
:1033140002460B460E4BA3FB02135B09642101FB1F
:1033240003F3D31A1B013233094AA2FB03235B09BB
:1033340003F00F02FB6E1B6832449A6000BF7C37B7
:10334400BD46BDE8F08F00BF0010014000140140ED
:103354001F85EB5170B50D4D0D4C641BA410002658
:10336400A64209D10B4D0C4C00F020F8641BA410AC
:103374000026A64205D170BD55F8043B9847013696
:10338400EEE755F8043B98470136F2E7E8330008C6
:10339400E8330008E8330008EC330008024403462D
:1033A400934200D1704703F8011BF9E7F8B500BF59
:1033B400F8BC08BC9E467047F8B500BFF8BC08BC12
:0433C4009E4670476A
:1033C80000000000000000000102030406070809CD
:0833D8000000000001020304E3
:0833E00024CEFF7F0100000074
:0433E800B90100081F
:0433EC00950100083F
:0C33F0000024F4001000000001000000A8
:0400000508000E8958
:00000001FF
